:100000000C9452010C947A010C947A010C947A01AC
:100010000C947A010C947A010C947A010C947A0174
:100020000C947A010C947A010C947A010C947A0164
:100030000C947A010C947A010C947A010C947A0154
:100040000C9496050C947A010C9406060C94E00529
:100050000C947A010C947A010C947A010C947A0134
:100060000C947A010C947A01000000000000005FFB
:1000700000000007000700147F147F14242A7F2A41
:10008000122313086462364955225000050300000C
:10009000001C2241000041221C0014083E081408E4
:1000A000083E0808005030000008080808080060F2
:1000B00060000020100804023E5149453E00427F86
:1000C000400042615149462141454B311814127F8D
:1000D0001027454545393C4A494930017109050316
:1000E0003649494936064949291E0036360000007E
:1000F0005636000008142241001414141414004150
:100100002214080201510906324979413E7E11113B
:10011000117E7F494949363E414141227F4141227A
:100120001C7F494949417F090909013E4149497AF2
:100130007F0808087F00417F41002040413F017F48
:10014000081422417F404040407F020C027F7F0420
:1001500008107F3E4141413E7F090909063E415159
:10016000215E7F09192946464949493101017F012C
:10017000013F4040403F1F2040201F3F4038403F4C
:100180006314081463070870080761514945430068
:100190007F41410002040810200041417F00040219
:1001A0000102044040404040000102040020545439
:1001B00054787F48444438384444442038444448C0
:1001C0007F3854545418087E0901020C5252523E92
:1001D0007F0804047800447D40002040443D007FB7
:1001E0001028440000417F40007C041804787C08FB
:1001F00004047838444444387C1414140808141453
:10020000187C7C080404084854545420043F44409B
:10021000203C4040207C1C2040201C3C4030403C86
:1002200044281028440C5050503C4464544C440022
:100230000836410000007F00000041360800100829
:100240000810080000000000000000002300260045
:10025000290000000000240027002A000000000000
:10026000250028002B0004040404040404040202F2
:100270000202020203030303030301020408102025
:100280004080010204081020010204081020000030
:100290000008000201000003040700000000000045
:1002A0000000380611241FBECFEFD8E0DEBFCDBF5F
:1002B00011E0A0E0B1E0E0E9F7E102C005900D92A5
:1002C000A434B107D9F722E0A4E4B1E001C01D9243
:1002D000AB34B207E1F711E0C2E5D1E004C02197E9
:1002E000FE010E94C00BC135D107C9F70E947806F4
:1002F0000C94C60B0C940000833081F028F48130FC
:1003000099F08230A9F008958730A9F08830C9F0BB
:100310008430B1F4809180008F7D03C08091800093
:100320008F7780938000089584B58F7784BD08957A
:1003300084B58F7DFBCF8091B0008F778093B00024
:1003400008958091B0008F7DF9CF1F93CF93DF93F5
:10035000282F30E0F901E257FD4F8491F901E6586A
:10036000FD4FD491F901EA59FD4FC491CC23A9F076
:10037000162F81110E947C01EC2FF0E0EE0FFF1F81
:10038000E45AFD4FA591B4918FB7F894EC911111F7
:1003900008C0D095DE23DC938FBFDF91CF911F91F2
:1003A0000895DE2BF8CFCF93DF9390E0FC01E65861
:1003B000FD4F24918A599D4FFC0184918823D1F0EF
:1003C00090E0880F991FFC01EE5AFD4FA591B49162
:1003D000FC01E45AFD4FC591D49161110EC09FB745
:1003E000F8948C91E22FE0958E238C932881E22360
:1003F000E8839FBFDF91CF9108958FB7F894EC9178
:10040000E22BEC938FBFF6CF8E50806480937C00FC
:1004100080917A00806480937A0080917A0086FDD2
:10042000FCCF809178009091790008953FB7F894BF
:1004300080915B0190915C01A0915D01B0915E01A2
:1004400026B5A89B05C02F3F19F00196A11DB11D2F
:100450003FBFBA2FA92F982F8827BC01CD01620F6B
:10046000711D811D911D42E0660F771F881F991F26
:100470004A95D1F708958F929F92AF92BF92CF92F3
:10048000DF92EF92FF924B015C010E9416026B011A
:100490007C010E9416026C197D098E099F09683E35
:1004A000734081059105A8F321E0821A9108A10803
:1004B000B10888EEC80E83E0D81EE11CF11C81143F
:1004C0009104A104B10429F7FF90EF90DF90CF9041
:1004D000BF90AF909F908F900895AF92BF92CF92B0
:1004E000DF92EF92FF920F931F93CF93DF936C01F4
:1004F0007B018B01040F151FEB015E01AE18BF08D5
:10050000C017D10759F06991D601ED91FC91019086
:10051000F081E02DC6010995892B79F7C501DF919E
:10052000CF911F910F91FF90EF90DF90CF90BF90F0
:10053000AF900895FC01538D448D252F30E0842F1A
:1005400090E0821B930B541710F0CF9608950197FB
:100550000895FC01918D828D981761F0A28DAE0FE8
:10056000BF2FB11D5D968C91928D9F5F9F73928F6F
:1005700090E008958FEF9FEF0895FC01918D828D9B
:10058000981731F0828DE80FF11D858D90E0089568
:100590008FEF9FEF0895FC01918D228D892F90E0C0
:1005A000805C9F4F821B91098F73992708958FE577
:1005B00091E00E94CB0221E0892B09F420E0822FF8
:1005C000089580E090E0892B29F00E94D7028111E4
:1005D0000C9400000895FC01A48DA80FB92FB11D43
:1005E000A35ABF4F2C91848D90E001968F73992769
:1005F000848FA689B7892C93A089B1898C91837047
:1006000080648C93938D848D981306C00288F3893F
:10061000E02D80818F7D80830895EF92FF920F936C
:100620001F93CF93DF93EC0181E0888F9B8D8C8D9E
:1006300098131AC0E889F989808185FF15C09FB792
:10064000F894EE89FF896083E889F9898081837055
:10065000806480839FBF81E090E0DF91CF911F9104
:100660000F91FF90EF900895F62E0B8D10E00F5F25
:100670001F4F0F731127E02E8C8D8E110CC00FB6FB
:1006800007FCFACFE889F989808185FFF5CFCE0193
:100690000E94EB02F1CFEB8DEC0FFD2FF11DE35A21
:1006A000FF4FF0829FB7F8940B8FEA89FB89808116
:1006B0008062CFCFCF93DF93EC01888D8823B9F090
:1006C000AA89BB89E889F9898C9185FD03C080815D
:1006D00086FD0DC00FB607FCF7CF8C9185FFF2CFDA
:1006E000808185FFEDCFCE010E94EB02E9CFDF9143
:1006F000CF910895089590E080E00895FC01019065
:100700000020E9F73197AF01481B590BBC018CEF72
:1007100091E00C946D028F929F92AF92BF920F93D3
:100720001F93CF93DF93CDB7DEB7A1970FB6F894A1
:10073000DEBF0FBECDBF19A2423008F44AE08E01E1
:100740000F5D1F4F842E912CB12CA12CA50194017B
:100750000E948A0BE62FB901CA01EA30F4F4E05D89
:10076000D801EE938D01232B242B252B79F790E0D4
:1007700080E0109719F0CD010E947E03A1960FB67C
:10078000F894DEBF0FBECDBFDF91CF911F910F91C7
:10079000BF90AF909F908F900895E95CE1CFEF926A
:1007A000FF920F931F93CF93DF93EC01042F8E8161
:1007B0000E94A50160E088850E94A501FC80ED8073
:1007C00018E0602F661F6627661F8E2D0E94A50108
:1007D000000F61E08F2D0E94A50160E08F2D0E9427
:1007E000A501115071F761E08885DF91CF911F91CC
:1007F0000F91FF90EF900C94A501CF93DF93CCEF76
:10080000D1E01C8690E06B8529E3629F612D112465
:10081000669570E06F5F7F4F0E94760B8D8740E892
:1008200060E0CE010E94CF034D85406460E0CE01C0
:10083000DF91CF910C94CF03CF93DF9380E00E94A0
:10084000FD03D0E0C0E080910702869586958695ED
:1008500090910602899FC0011124C817D90740F45E
:1008600040E061E08CEF91E00E94CF032196EBCF56
:1008700080E0DF91CF910C94FD03CF92DF92EF9255
:10088000FF920F931F93CF93DF9300D000D01F925E
:10089000CDB7DEB767FD6BC07C01862F90E060327C
:1008A00008F455C0809725E0289FB001299F700D5E
:1008B000112468597F4F45E050E0CE0101960E9417
:1008C00031098E010F5F1F4F680185E0C80ED11CF2
:1008D000F80141918F01F70186858111409561E012
:1008E000C7010E94CF030C151D0591F7F70146853E
:1008F000419561E0C7010E94CF03F701848590E034
:100900000696628570E00E94760B8487892B79F4C5
:10091000858590E00196638529E3629F612D11240E
:10092000669570E06F5F7F4F0E94760B858781E050
:1009300090E00F900F900F900F900F90DF91CF915C
:100940001F910F91FF90EF90DF90CF900895880F47
:10095000991FF701E80FF91F078510890115110587
:1009600009F0B2CF45E050E068E670E0A6CF90E035
:1009700080E0DFCF4F925F926F927F928F929F9233
:10098000AF92BF92CF92DF92EF92FF920F931F939D
:10099000CF936B017C01742EAC019B010E94710B03
:1009A000882399F083E291E0CF911F910F91FF90FE
:1009B000EF90DF90CF90BF90AF909F908F907F90FF
:1009C0006F905F904F900C947E0346015701E8941E
:1009D000B7F82FEF3FEF4FE75FE7C501B4010E9483
:1009E000710B81110DC02FEF3FEF4FE75FE7C5019E
:1009F000B4010E94A70918161CF487E291E0D4CF35
:100A00002FEF3FEF4FE75FE4C701B6010E94FF0AF7
:100A100018161CF48BE291E0C7CF2FEF3FEF4FE7A2
:100A20005FECC701B6010E94A70987FDF3CF20E064
:100A300030E0A901C701B6010E94A70910E000E05B
:100A400087FF0AC06DE28CEF91E00E943D048C01AB
:100A5000F7FAF094F7F8F094C0E060E070E080E01E
:100A60009FE37C1641F020E030E040E251E40E9438
:100A7000AC09CF5FF6CFA70196010E943B092B017D
:100A80003C010E941E0A4B015C014AE00E948B035C
:100A90007C01E00EF11ECC23C1F1C501B4010E941E
:100AA0004D0A9B01AC01C301B2010E943A094B01FE
:100AB0005C016EE28CEF91E00E943D04E80EF91EAD
:100AC000C15018F120E030E040E251E4C501B4012A
:100AD0000E94040B2B013C010E941E0A4B01B12C09
:100AE000A12C4AE0C501B4010E948B03E80EF91E57
:100AF000C501B4010E944D0A9B01AC01C301B201C2
:100B00000E943A094B015C01DBCFC701CF911F91D5
:100B10000F91FF90EF90DF90CF90BF90AF909F909C
:100B20008F907F906F905F904F9008951F920F92DB
:100B30000FB60F9211242F933F938F939F93AF93F0
:100B4000BF938091570190915801A0915901B091A4
:100B50005A013091560123E0230F2D3758F50196A5
:100B6000A11DB11D20935601809357019093580108
:100B7000A0935901B0935A0180915B0190915C015F
:100B8000A0915D01B0915E010196A11DB11D809300
:100B90005B0190935C01A0935D01B0935E01BF91F6
:100BA000AF919F918F913F912F910F900FBE0F901A
:100BB0001F90189526E8230F0296A11DB11DD2CFD4
:100BC0001F920F920FB60F9211242F933F934F93C2
:100BD0005F936F937F938F939F93AF93BF93EF93A5
:100BE000FF938FE591E00E94EB02FF91EF91BF919F
:100BF000AF919F918F917F916F915F914F913F91B5
:100C00002F910F900FBE0F901F9018951F920F926B
:100C10000FB60F9211242F938F939F93EF93FF930F
:100C2000E0916F01F09170018081E0917501F09188
:100C3000760182FD1BC09081809178018F5F8F7358
:100C400020917901821741F0E0917801F0E0E15ABA
:100C5000FE4F958F80937801FF91EF919F918F9137
:100C60002F910F900FBE0F901F9018958081F4CF99
:100C7000EFE5F1E01382128288EE93E0A0E0B0E0AD
:100C800084839583A683B78389E091E091838083F1
:100C900085EC90E09587848784EC90E09787868741
:100CA00080EC90E0918B808B81EC90E0938B828B39
:100CB00082EC90E0958B848B86EC90E0978B868B12
:100CC000118E128E138E148EECEFF1E013821282CD
:100CD0008BE191E09183808383E0848384E085834A
:100CE00085E0868386E0878387E08087168608957F
:100CF000CF93DF9300D000D0CDB7DEB7789484B522
:100D0000826084BD84B5816084BD85B5826085BD07
:100D100085B5816085BD80916E00816080936E0095
:100D20001092810080918100826080938100809187
:100D30008100816080938100809180008160809338
:100D400080008091B10084608093B1008091B000F8
:100D500081608093B00080917A00846080937A00F3
:100D600080917A00826080937A0080917A0081601D
:100D700080937A0080917A00806880937A00109244
:100D8000C100E0916F01F091700182E08083E091F9
:100D90006B01F0916C011082E0916D01F0916E0198
:100DA0008FEC808310927701E0917301F0917401D0
:100DB00086E08083E0917101F09172018081806111
:100DC0008083E0917101F09172018081886080835D
:100DD000E0917101F0917201808180688083E091DF
:100DE0007101F091720180818F7D808360E088E0E5
:100DF0000E94D30184E58093060280E3809307027A
:100E0000109205021092080210920902EBE0F2E043
:100E100080E4DF011D928A95E9F761E0809100028C
:100E20000E94D30161E0809101020E94D30161E040
:100E3000809102020E94D30161E0809103020E942E
:100E4000D30161E0809104020E94D30161E08091AE
:100E500003020E94A50161E0809104020E94A501A5
:100E600060E0809103020E94A50164E670E080E0EA
:100E700090E00E943B0261E0809103020E94A50184
:100E800041E260E08CEF91E00E94CF0343E160E03B
:100E90008CEF91E00E94CF038091050242EC8130FB
:100EA00039F440EE60E08CEF91E00E94CF0345E022
:100EB00060E08CEF91E00E94CF0340E260E08CEFB5
:100EC00091E00E94CF0349E060E08CEF91E00E9446
:100ED000CF030E941C0448E060E08CEF91E00E9488
:100EE000CF034CE060E08CEF91E00E94CF0364E61A
:100EF00070E080E090E00E943B0240E860E08CEF10
:100F000091E00E94CF0340E460E08CEF91E00E940A
:100F1000CF0380E091E090930E0280930D020E9437
:100F20001C0461E08AE00E94D30161E08BE00E9432
:100F3000D30161E08CE00E94D30161E08DE00E946A
:100F4000D30192E8292E92E0392E0EE612E08EE0CF
:100F50000E940402BC01990F880B990B0E944F0A52
:100F60002AE038E240EA5BE30E94040B20E030E034
:100F700048EC52E40E94040B2B013C0140925201C8
:100F80005092530160925401709255018FE00E947B
:100F90000402BC01990F880B990B0E944F0A2AE0AA
:100FA00038E240EA5BE30E94040B20E030E048ECCA
:100FB00052E40E94040B4B015C0180924E0190921E
:100FC0004F01A0925001B092510180E10E940402B1
:100FD000BC01990F880B990B0E944F0A2AE038E256
:100FE00040EA5BE30E94040B20E030E048EC52E46E
:100FF0000E94040B6B017C01C0924A01D0924B010C
:10100000E0924C01F0924D0181E10E940402BC018A
:10101000990F880B990B0E944F0A2AE038E240EAA8
:101020005BE30E94040B20E030E048EC52E40E94B5
:10103000040B69837A838B839C836093460170934E
:101040004701809348019093490120E030E040EA55
:1010500051E4C301B2010E94FF0A181624F461E0B2
:101060008AE00E94A50120E030E040EA51E4C3019B
:10107000B2010E94A70987FF04C060E08AE00E94D5
:10108000A50120E030E040EA51E4C501B4010E942E
:10109000FF0A181624F461E08BE00E94A50120E00D
:1010A00030E040EA51E4C501B4010E94A70987FF7E
:1010B00004C060E08BE00E94A50120E030E040EA3F
:1010C00051E4C701B6010E94FF0A181624F461E03A
:1010D0008CE00E94A50120E030E040EA51E4C70125
:1010E000B6010E94A70987FF04C060E08CE00E945F
:1010F000A50120E030E040EA51E469817A818B81EA
:101100009C810E94FF0A181624F461E08DE00E9481
:10111000A50120E030E040EA51E469817A818B81C9
:101120009C810E94A70987FF04C060E08DE00E94B7
:10113000A501E6E9F2E08491F101E490F801F49070
:10114000FF2009F484C081110E947C01EF2DF0E0A2
:10115000EE0FFF1FE85BFD4FA591B4918C91E82243
:1011600091E080E009F490E0E92EF82EF09245013C
:10117000E09244010E941C04EA94EF2809F06AC03E
:1011800040E260E08CEF91E00E94CF0380E00E949B
:10119000FD038FE291E00E947E0360915201709105
:1011A0005301809154019091550142E00E94BA048C
:1011B00081E00E94FD0384E391E00E947E03609140
:1011C0004E0170914F01809150019091510142E088
:1011D0000E94BA0482E00E94FD0389E391E00E942C
:1011E0007E0360914A0170914B0180914C01909176
:1011F0004D0142E00E94BA0483E00E94FD038EE3A9
:1012000091E00E947E0360914601709147018091B8
:1012100048019091490142E00E94BA0468EB7BE0EA
:1012200080E090E00E943B0268EE73E080E090E096
:101230000E943B0280E090E0892B09F488CE0E9456
:10124000D702882309F483CE0E94000080CEF12CBF
:10125000E12C8CCF44E260E08CEF91E00E94CF0360
:10126000DDCFFB01DC0102C005900D9241505040E2
:10127000D8F708955058BB27AA270E9452090C940A
:10128000C50A0E94B70A38F00E94BE0A20F039F45D
:101290009F3F19F426F40C94B40A0EF4E095E7FB92
:1012A0000C94AE0AE92F0E94D60A58F3BA176207C7
:1012B00073078407950720F079F4A6F50C94F80AD3
:1012C0000EF4E0950B2EBA2FA02D0B01B901900161
:1012D0000C01CA01A0011124FF27591B99F0593FA5
:1012E00050F4503E68F11A16F040A22F232F342FED
:1012F0004427585FF3CF469537952795A795F0403B
:101300005395C9F77EF41F16BA0B620B730B840B4F
:10131000BAF09150A1F0FF0FBB1F661F771F881F07
:10132000C2F70EC0BA0F621F731F841F48F487955F
:1013300077956795B795F7959E3F08F0B0CF939551
:10134000880F08F09927EE0F9795879508950E94CA
:101350008A0A08F481E008950E94C0090C94C50A25
:101360000E94BE0A58F00E94B70A40F029F45F3F7D
:1013700029F00C94AE0A51110C94F90A0C94B40A99
:101380000E94D60A68F39923B1F3552391F3951B74
:10139000550BBB27AA2762177307840738F09F5F96
:1013A0005F4F220F331F441FAA1FA9F335D00E2E03
:1013B0003AF0E0E832D091505040E695001CCAF770
:1013C0002BD0FE2F29D0660F771F881FBB1F261733
:1013D00037074807AB07B0E809F0BB0B802DBF010A
:1013E000FF2793585F4F3AF09E3F510578F00C94D9
:1013F000AE0A0C94F90A5F3FE4F3983ED4F3869565
:1014000077956795B795F7959F5FC9F7880F911DF9
:101410009695879597F90895E1E0660F771F881FE5
:10142000BB1F621773078407BA0720F0621B730B98
:10143000840BBA0BEE1F88F7E09508950E94DE0A30
:1014400088F09F5798F0B92F9927B751B0F0E1F085
:10145000660F771F881F991F1AF0BA95C9F714C035
:10146000B13091F00E94F80AB1E008950C94F80AA6
:10147000672F782F8827B85F39F0B93FCCF386956E
:1014800077956795B395D9F73EF4909580957095CB
:1014900061957F4F8F4F9F4F0895E89409C097FB48
:1014A0003EF490958095709561957F4F8F4F9F4F3B
:1014B0009923A9F0F92F96E9BB279395F69587957F
:1014C00077956795B795F111F8CFFAF4BB0F11F442
:1014D00060FF1BC06F5F7F4F8F4F9F4F16C08823E9
:1014E00011F096E911C0772321F09EE8872F762F1F
:1014F00005C0662371F096E8862F70E060E02AF060
:101500009A95660F771F881FDAF7880F969587954B
:1015100097F90895990F0008550FAA0BE0E8FEEF20
:1015200016161706E807F907C0F012161306E407A7
:10153000F50798F0621B730B840B950B39F40A26A0
:1015400061F0232B242B252B21F408950A2609F47E
:10155000A140A6958FEF811D811D089597F99F6782
:1015600080E870E060E008959FEF80EC089500242B
:101570000A941616170618060906089500240A94F8
:1015800012161306140605060895092E0394000C7E
:1015900011F4882352F0BB0F40F4BF2B11F460FF0D
:1015A00004C06F5F7F4F8F4F9F4F089557FD905836
:1015B000440F551F59F05F3F71F04795880F97FB17
:1015C000991F61F09F3F79F08795089512161306D1
:1015D0001406551FF2CF4695F1DF08C01616170600
:1015E0001806991FF1CF8695710561050894089535
:1015F000E894BB2766277727CB0197F908950E94C7
:101600008A0A08F48FEF08950E94170B0C94C50AFC
:101610000E94B70A38F00E94BE0A20F0952311F00C
:101620000C94AE0A0C94B40A11240C94F90A0E948A
:10163000D60A70F3959FC1F3950F50E0551F629F36
:10164000F001729FBB27F00DB11D639FAA27F00D1B
:10165000B11DAA1F649F6627B00DA11D661F829F42
:101660002227B00DA11D621F739FB00DA11D621F27
:10167000839FA00D611D221F749F3327A00D611D44
:10168000231F849F600D211D822F762F6A2F112426
:101690009F5750409AF0F1F088234AF0EE0FFF1F59
:1016A000BB1F661F771F881F91505040A9F79E3FB0
:1016B000510580F00C94AE0A0C94F90A5F3FE4F3F4
:1016C000983ED4F3869577956795B795F795E79506
:1016D0009F5FC1F7FE2B880F911D9695879597F90F
:1016E00008950E948A0A880B990B089597FB072E8C
:1016F00016F4009407D077FD09D00E94AC0B07FCCC
:1017000005D03EF4909581959F4F08957095619511
:101710007F4F0895A1E21A2EAA1BBB1BFD010DC02D
:10172000AA1FBB1FEE1FFF1FA217B307E407F50791
:1017300020F0A21BB30BE40BF50B661F771F881F6D
:10174000991F1A9469F760957095809590959B0103
:10175000AC01BD01CF010895AA1BBB1B51E107C01D
:10176000AA1FBB1FA617B70710F0A61BB70B881F31
:10177000991F5A95A9F780959095BC01CD010895C0
:10178000EE0FFF1F0590F491E02D0994F894FFCF20
:101790000007050700000000000D036D029A025AC1
:1017A00003CB02A902BD02000000003D046D027BD4
:1017B000037A036E616E00696E66006F76660043A1
:1017C000483020004348312000434832200043483D
:0417D00033200000C2
:00000001FF
